{
  "contractName": "Gratis",
  "abi": [
    {
      "constant": true,
      "inputs": [],
      "name": "ownershipEnabled",
      "outputs": [
        {
          "name": "",
          "type": "bool"
        }
      ],
      "payable": false,
      "stateMutability": "view",
      "type": "function"
    },
    {
      "constant": false,
      "inputs": [
        {
          "name": "nameHash",
          "type": "bytes32"
        },
        {
          "name": "owner",
          "type": "address"
        },
        {
          "name": "token",
          "type": "address"
        },
        {
          "name": "weiPerToken",
          "type": "uint256"
        }
      ],
      "name": "setAccount",
      "outputs": [],
      "payable": false,
      "stateMutability": "nonpayable",
      "type": "function"
    },
    {
      "constant": false,
      "inputs": [
        {
          "name": "nameHash",
          "type": "bytes32"
        },
        {
          "name": "newOwner",
          "type": "address"
        }
      ],
      "name": "transferAccountOwnership",
      "outputs": [],
      "payable": false,
      "stateMutability": "nonpayable",
      "type": "function"
    },
    {
      "constant": true,
      "inputs": [],
      "name": "owner",
      "outputs": [
        {
          "name": "",
          "type": "address"
        }
      ],
      "payable": false,
      "stateMutability": "view",
      "type": "function"
    },
    {
      "constant": true,
      "inputs": [
        {
          "name": "",
          "type": "bytes32"
        }
      ],
      "name": "accounts",
      "outputs": [
        {
          "name": "owner",
          "type": "address"
        },
        {
          "name": "token",
          "type": "address"
        },
        {
          "name": "weiPerToken",
          "type": "uint256"
        }
      ],
      "payable": false,
      "stateMutability": "view",
      "type": "function"
    },
    {
      "constant": false,
      "inputs": [],
      "name": "relinquishOwnership",
      "outputs": [],
      "payable": false,
      "stateMutability": "nonpayable",
      "type": "function"
    },
    {
      "constant": true,
      "inputs": [
        {
          "name": "",
          "type": "address"
        },
        {
          "name": "",
          "type": "bytes32"
        }
      ],
      "name": "pendingDonations",
      "outputs": [
        {
          "name": "",
          "type": "uint256"
        }
      ],
      "payable": false,
      "stateMutability": "view",
      "type": "function"
    },
    {
      "constant": false,
      "inputs": [
        {
          "name": "_accountCreator",
          "type": "address"
        }
      ],
      "name": "setAccountCreator",
      "outputs": [],
      "payable": false,
      "stateMutability": "nonpayable",
      "type": "function"
    },
    {
      "constant": false,
      "inputs": [
        {
          "name": "nameHash",
          "type": "bytes32"
        },
        {
          "name": "weiPerToken",
          "type": "uint256"
        }
      ],
      "name": "setAccountWeiPerToken",
      "outputs": [],
      "payable": false,
      "stateMutability": "nonpayable",
      "type": "function"
    },
    {
      "constant": true,
      "inputs": [],
      "name": "accountCreator",
      "outputs": [
        {
          "name": "",
          "type": "address"
        }
      ],
      "payable": false,
      "stateMutability": "view",
      "type": "function"
    },
    {
      "constant": false,
      "inputs": [
        {
          "name": "newOwner",
          "type": "address"
        }
      ],
      "name": "transferOwnership",
      "outputs": [],
      "payable": false,
      "stateMutability": "nonpayable",
      "type": "function"
    },
    {
      "anonymous": false,
      "inputs": [
        {
          "indexed": false,
          "name": "donor",
          "type": "address"
        },
        {
          "indexed": false,
          "name": "nameHash",
          "type": "bytes32"
        },
        {
          "indexed": false,
          "name": "value",
          "type": "uint256"
        }
      ],
      "name": "Donation",
      "type": "event"
    },
    {
      "anonymous": false,
      "inputs": [
        {
          "indexed": false,
          "name": "donor",
          "type": "address"
        },
        {
          "indexed": false,
          "name": "nameHash",
          "type": "bytes32"
        },
        {
          "indexed": false,
          "name": "value",
          "type": "uint256"
        }
      ],
      "name": "PendingDonation",
      "type": "event"
    },
    {
      "anonymous": false,
      "inputs": [
        {
          "indexed": false,
          "name": "donor",
          "type": "address"
        },
        {
          "indexed": false,
          "name": "nameHash",
          "type": "bytes32"
        },
        {
          "indexed": false,
          "name": "value",
          "type": "uint256"
        }
      ],
      "name": "PendingDonationCompleted",
      "type": "event"
    },
    {
      "anonymous": false,
      "inputs": [
        {
          "indexed": false,
          "name": "donor",
          "type": "address"
        },
        {
          "indexed": false,
          "name": "nameHash",
          "type": "bytes32"
        },
        {
          "indexed": false,
          "name": "value",
          "type": "uint256"
        }
      ],
      "name": "PendingDonationRefunded",
      "type": "event"
    },
    {
      "anonymous": false,
      "inputs": [
        {
          "indexed": false,
          "name": "nameHash",
          "type": "bytes32"
        }
      ],
      "name": "AccountSet",
      "type": "event"
    },
    {
      "anonymous": false,
      "inputs": [
        {
          "indexed": false,
          "name": "nameHash",
          "type": "bytes32"
        },
        {
          "indexed": false,
          "name": "oldOwner",
          "type": "address"
        },
        {
          "indexed": false,
          "name": "newOwner",
          "type": "address"
        }
      ],
      "name": "AccountOwnershipTransferred",
      "type": "event"
    },
    {
      "anonymous": false,
      "inputs": [
        {
          "indexed": false,
          "name": "nameHash",
          "type": "bytes32"
        },
        {
          "indexed": false,
          "name": "weiPerToken",
          "type": "uint256"
        }
      ],
      "name": "AccountWeiPerTokenSet",
      "type": "event"
    },
    {
      "anonymous": false,
      "inputs": [
        {
          "indexed": false,
          "name": "oldCreator",
          "type": "address"
        },
        {
          "indexed": false,
          "name": "newCreator",
          "type": "address"
        }
      ],
      "name": "AccountCreatorChanged",
      "type": "event"
    },
    {
      "anonymous": false,
      "inputs": [
        {
          "indexed": true,
          "name": "previousOwner",
          "type": "address"
        },
        {
          "indexed": true,
          "name": "newOwner",
          "type": "address"
        }
      ],
      "name": "OwnershipTransferred",
      "type": "event"
    },
    {
      "anonymous": false,
      "inputs": [],
      "name": "OwnershipRelinquished",
      "type": "event"
    },
    {
      "constant": false,
      "inputs": [
        {
          "name": "nameHash",
          "type": "bytes32"
        }
      ],
      "name": "donate",
      "outputs": [],
      "payable": true,
      "stateMutability": "payable",
      "type": "function"
    },
    {
      "constant": false,
      "inputs": [
        {
          "name": "nameHashes",
          "type": "bytes32[]"
        },
        {
          "name": "values",
          "type": "uint256[]"
        }
      ],
      "name": "donateToMany",
      "outputs": [],
      "payable": true,
      "stateMutability": "payable",
      "type": "function"
    },
    {
      "constant": false,
      "inputs": [
        {
          "name": "nameHash",
          "type": "bytes32"
        },
        {
          "name": "donors",
          "type": "address[]"
        }
      ],
      "name": "withdrawPendingDonations",
      "outputs": [],
      "payable": false,
      "stateMutability": "nonpayable",
      "type": "function"
    },
    {
      "constant": false,
      "inputs": [
        {
          "name": "nameHash",
          "type": "bytes32"
        },
        {
          "name": "value",
          "type": "uint256"
        }
      ],
      "name": "refundPendingDonation",
      "outputs": [],
      "payable": false,
      "stateMutability": "nonpayable",
      "type": "function"
    }
  ],
  "bytecode": "0x608060405260016000806101000a81548160ff02191690831515021790555033600060016101000a81548173ffffffffffffffffffffffffffffffffffffffff021916908373ffffffffffffffffffffffffffffffffffffffff160217905550611e208061006e6000396000f3006080604052600436106100db576000357c0100000000000000000000000000000000000000000000000000000000900463ffffffff1680632d266ed8146100e057806342cfe7391461010b578063455ce326146101345780634ee4fb471461015d5780638da5cb5b14610186578063bc529c43146101b1578063c37067fa146101f0578063c587396b1461020c578063cf12ce1514610223578063d6451a921461024c578063e00990fd14610268578063e3c2061a146102a5578063ea97ed0f146102ce578063f124f7f4146102f7578063f2fde38b14610322575b600080fd5b3480156100ec57600080fd5b506100f561034b565b6040516101029190611bec565b60405180910390f35b34801561011757600080fd5b50610132600480360361012d919081019061199c565b61035d565b005b34801561014057600080fd5b5061015b60048036036101569190810190611960565b6104d3565b005b34801561016957600080fd5b50610184600480360361017f9190810190611a53565b610877565b005b34801561019257600080fd5b5061019b6109ca565b6040516101a89190611b03565b60405180910390f35b3480156101bd57600080fd5b506101d860048036036101d39190810190611937565b6109f0565b6040516101e793929190611bb5565b60405180910390f35b61020a60048036036102059190810190611937565b610a5a565b005b34801561021857600080fd5b50610221610a67565b005b34801561022f57600080fd5b5061024a600480360361024591908101906119ff565b610b25565b005b610266600480360361026191908101906118a2565b610ebf565b005b34801561027457600080fd5b5061028f600480360361028a9190810190611866565b610f60565b60405161029c9190611c82565b60405180910390f35b3480156102b157600080fd5b506102cc60048036036102c7919081019061183d565b610f85565b005b3480156102da57600080fd5b506102f560048036036102f09190810190611a53565b61109a565b005b34801561030357600080fd5b5061030c611174565b6040516103199190611b03565b60405180910390f35b34801561032e57600080fd5b506103496004803603610344919081019061183d565b61119a565b005b6000809054906101000a900460ff1681565b600160009054906101000a900473ffffffffffffffffffffffffffffffffffffffff1673ffffffffffffffffffffffffffffffffffffffff163373ffffffffffffffffffffffffffffffffffffffff161415156103b957600080fd5b7f4dadbe5efc946a0fdf01b707f8b5a053316472db7a0a7121f9beed4cb59dfe5e846040516103e89190611c07565b60405180910390a18260026000866000191660001916815260200190815260200160002060000160006101000a81548173ffffffffffffffffffffffffffffffffffffffff021916908373ffffffffffffffffffffffffffffffffffffffff1602179055508160026000866000191660001916815260200190815260200160002060010160006101000a81548173ffffffffffffffffffffffffffffffffffffffff021916908373ffffffffffffffffffffffffffffffffffffffff160217905550806002600086600019166000191681526020019081526020016000206002018190555050505050565b60008260026000826000191660001916815260200190815260200160002060000160009054906101000a900473ffffffffffffffffffffffffffffffffffffffff1673ffffffffffffffffffffffffffffffffffffffff163373ffffffffffffffffffffffffffffffffffffffff1614151561054e57600080fd5b7ffdf0f4b363380de3f21ecfa0a5f122c3ae66c021eddc5dfc559467af6a8c90048460026000876000191660001916815260200190815260200160002060000160009054906101000a900473ffffffffffffffffffffffffffffffffffffffff16856040516105bf93929190611c22565b60405180910390a160026000856000191660001916815260200190815260200160002060010160009054906101000a900473ffffffffffffffffffffffffffffffffffffffff1673ffffffffffffffffffffffffffffffffffffffff166370a0823160026000876000191660001916815260200190815260200160002060000160009054906101000a900473ffffffffffffffffffffffffffffffffffffffff166040518263ffffffff167c01000000000000000000000000000000000000000000000000000000000281526004016106989190611b03565b602060405180830381600087803b1580156106b257600080fd5b505af11580156106c6573d6000803e3d6000fd5b505050506040513d601f19601f820116820180604052506106ea9190810190611a8f565b915060026000856000191660001916815260200190815260200160002060010160009054906101000a900473ffffffffffffffffffffffffffffffffffffffff1673ffffffffffffffffffffffffffffffffffffffff166323b872dd60026000876000191660001916815260200190815260200160002060000160009054906101000a900473ffffffffffffffffffffffffffffffffffffffff1685856040518463ffffffff167c01000000000000000000000000000000000000000000000000000000000281526004016107c193929190611b47565b602060405180830381600087803b1580156107db57600080fd5b505af11580156107ef573d6000803e3d6000fd5b505050506040513d601f19601f82011682018060405250610813919081019061190e565b508260026000866000191660001916815260200190815260200160002060000160006101000a81548173ffffffffffffffffffffffffffffffffffffffff021916908373ffffffffffffffffffffffffffffffffffffffff16021790555050505050565b600360003373ffffffffffffffffffffffffffffffffffffffff1673ffffffffffffffffffffffffffffffffffffffff168152602001908152602001600020600083600019166000191681526020019081526020016000205481111515156108de57600080fd5b7f6fb9d027bf60486c78ea8b59850644373827875ec43bc3fecc74af5cc0b1656833838360405161091193929190611b7e565b60405180910390a180600360003373ffffffffffffffffffffffffffffffffffffffff1673ffffffffffffffffffffffffffffffffffffffff16815260200190815260200160002060008460001916600019168152602001908152602001600020600082825403925050819055503373ffffffffffffffffffffffffffffffffffffffff166108fc829081150290604051600060405180830381858888f193505050501580156109c5573d6000803e3d6000fd5b505050565b600060019054906101000a900473ffffffffffffffffffffffffffffffffffffffff1681565b60026020528060005260406000206000915090508060000160009054906101000a900473ffffffffffffffffffffffffffffffffffffffff16908060010160009054906101000a900473ffffffffffffffffffffffffffffffffffffffff16908060020154905083565b610a64813461130c565b50565b6000809054906101000a900460ff161515610a8157600080fd5b600060019054906101000a900473ffffffffffffffffffffffffffffffffffffffff1673ffffffffffffffffffffffffffffffffffffffff163373ffffffffffffffffffffffffffffffffffffffff16141515610add57600080fd5b7f035c366c9fb5654484b6f75ddfba0b1feece4665a626798ae6ef59a4757fd18560405160405180910390a160008060006101000a81548160ff021916908315150217905550565b60008060026000856000191660001916815260200190815260200160002060000160009054906101000a900473ffffffffffffffffffffffffffffffffffffffff1673ffffffffffffffffffffffffffffffffffffffff163373ffffffffffffffffffffffffffffffffffffffff16141515610ba057600080fd5b600091505b82518260ff161015610e345760036000848460ff16815181101515610bc657fe5b9060200190602002015173ffffffffffffffffffffffffffffffffffffffff1673ffffffffffffffffffffffffffffffffffffffff1681526020019081526020016000206000856000191660001916815260200190815260200160002054810190507f5f08f8864c0c5241c2ac51e195bfc0a15f909b648d1ada7c9e27e68abcb966b2838360ff16815181101515610c5a57fe5b906020019060200201518560036000878760ff16815181101515610c7a57fe5b9060200190602002015173ffffffffffffffffffffffffffffffffffffffff1673ffffffffffffffffffffffffffffffffffffffff1681526020019081526020016000206000886000191660001916815260200190815260200160002054604051610ce793929190611b7e565b60405180910390a1610daf84848460ff16815181101515610d0457fe5b906020019060200201516002600088600019166000191681526020019081526020016000206002015460036000888860ff16815181101515610d4257fe5b9060200190602002015173ffffffffffffffffffffffffffffffffffffffff1673ffffffffffffffffffffffffffffffffffffffff1681526020019081526020016000206000896000191660001916815260200190815260200160002054811515610da957fe5b04611509565b600060036000858560ff16815181101515610dc657fe5b9060200190602002015173ffffffffffffffffffffffffffffffffffffffff1673ffffffffffffffffffffffffffffffffffffffff16815260200190815260200160002060008660001916600019168152602001908152602001600020819055508180600101925050610ba5565b60026000856000191660001916815260200190815260200160002060000160009054906101000a900473ffffffffffffffffffffffffffffffffffffffff1673ffffffffffffffffffffffffffffffffffffffff166108fc829081150290604051600060405180830381858888f19350505050158015610eb8573d6000803e3d6000fd5b5050505050565b600080600091505b8351821015610ef9578282815181101515610ede57fe5b90602001906020020151810190508180600101925050610ec7565b3481141515610f0757600080fd5b600091505b8351821015610f5a57610f4d8483815181101515610f2657fe5b906020019060200201518484815181101515610f3e57fe5b9060200190602002015161130c565b8180600101925050610f0c565b50505050565b6003602052816000526040600020602052806000526040600020600091509150505481565b6000809054906101000a900460ff161515610f9f57600080fd5b600060019054906101000a900473ffffffffffffffffffffffffffffffffffffffff1673ffffffffffffffffffffffffffffffffffffffff163373ffffffffffffffffffffffffffffffffffffffff16141515610ffb57600080fd5b7ff1fc06748ad759fee5921e317cca9c67768c66f5785d95e0de2cdfcac0d7d409600160009054906101000a900473ffffffffffffffffffffffffffffffffffffffff168260405161104e929190611b1e565b60405180910390a180600160006101000a81548173ffffffffffffffffffffffffffffffffffffffff021916908373ffffffffffffffffffffffffffffffffffffffff16021790555050565b8160026000826000191660001916815260200190815260200160002060000160009054906101000a900473ffffffffffffffffffffffffffffffffffffffff1673ffffffffffffffffffffffffffffffffffffffff163373ffffffffffffffffffffffffffffffffffffffff1614151561111357600080fd5b7f75d650ca86fb3d32093655e75ca5f3e378d7a28b19115d0aa9c0521d998bb0878383604051611144929190611c59565b60405180910390a18160026000856000191660001916815260200190815260200160002060020181905550505050565b600160009054906101000a900473ffffffffffffffffffffffffffffffffffffffff1681565b6000809054906101000a900460ff1615156111b457600080fd5b600060019054906101000a900473ffffffffffffffffffffffffffffffffffffffff1673ffffffffffffffffffffffffffffffffffffffff163373ffffffffffffffffffffffffffffffffffffffff1614151561121057600080fd5b600073ffffffffffffffffffffffffffffffffffffffff168173ffffffffffffffffffffffffffffffffffffffff161415151561124c57600080fd5b8073ffffffffffffffffffffffffffffffffffffffff16600060019054906101000a900473ffffffffffffffffffffffffffffffffffffffff1673ffffffffffffffffffffffffffffffffffffffff167f8be0079c531659141344cd1fd0a4f28419497f9722a3daafe3b4186f6b6457e060405160405180910390a380600060016101000a81548173ffffffffffffffffffffffffffffffffffffffff021916908373ffffffffffffffffffffffffffffffffffffffff16021790555050565b600060026000846000191660001916815260200190815260200160002060000160009054906101000a900473ffffffffffffffffffffffffffffffffffffffff1673ffffffffffffffffffffffffffffffffffffffff16141515611463577f9f9741a08383daf9bbf12e831e058a9a158608e47aff9e9727c4891848d0af7c33838360405161139d93929190611b7e565b60405180910390a160026000836000191660001916815260200190815260200160002060000160009054906101000a900473ffffffffffffffffffffffffffffffffffffffff1673ffffffffffffffffffffffffffffffffffffffff166108fc829081150290604051600060405180830381858888f19350505050158015611429573d6000803e3d6000fd5b5061145e8233600260008660001916600019168152602001908152602001600020600201548481151561145857fe5b04611509565b611505565b7fd96ef3b4a8e013f0efbdfdeccb48f3aae4f1f566894cfad64f54f685632c975633838360405161149693929190611b7e565b60405180910390a180600360003373ffffffffffffffffffffffffffffffffffffffff1673ffffffffffffffffffffffffffffffffffffffff16815260200190815260200160002060008460001916600019168152602001908152602001600020600082825401925050819055505b5050565b60026000846000191660001916815260200190815260200160002060010160009054906101000a900473ffffffffffffffffffffffffffffffffffffffff1673ffffffffffffffffffffffffffffffffffffffff166323b872dd60026000866000191660001916815260200190815260200160002060000160009054906101000a900473ffffffffffffffffffffffffffffffffffffffff1684846040518463ffffffff167c01000000000000000000000000000000000000000000000000000000000281526004016115de93929190611b47565b602060405180830381600087803b1580156115f857600080fd5b505af115801561160c573d6000803e3d6000fd5b505050506040513d601f19601f82011682018060405250611630919081019061190e565b50505050565b60006116428235611d82565b905092915050565b600082601f830112151561165d57600080fd5b813561167061166b82611cca565b611c9d565b9150818183526020840193506020810190508385602084028201111561169557600080fd5b60005b838110156116c557816116ab8882611636565b845260208401935060208301925050600181019050611698565b5050505092915050565b600082601f83011215156116e257600080fd5b81356116f56116f082611cf2565b611c9d565b9150818183526020840193506020810190508385602084028201111561171a57600080fd5b60005b8381101561174a578161173088826117ed565b84526020840193506020830192505060018101905061171d565b5050505092915050565b600082601f830112151561176757600080fd5b813561177a61177582611d1a565b611c9d565b9150818183526020840193506020810190508385602084028201111561179f57600080fd5b60005b838110156117cf57816117b58882611815565b8452602084019350602083019250506001810190506117a2565b5050505092915050565b60006117e58251611da2565b905092915050565b60006117f98235611dae565b905092915050565b600061180d8235611db8565b905092915050565b60006118218235611dca565b905092915050565b60006118358251611dca565b905092915050565b60006020828403121561184f57600080fd5b600061185d84828501611636565b91505092915050565b6000806040838503121561187957600080fd5b600061188785828601611636565b9250506020611898858286016117ed565b9150509250929050565b600080604083850312156118b557600080fd5b600083013567ffffffffffffffff8111156118cf57600080fd5b6118db858286016116cf565b925050602083013567ffffffffffffffff8111156118f857600080fd5b61190485828601611754565b9150509250929050565b60006020828403121561192057600080fd5b600061192e848285016117d9565b91505092915050565b60006020828403121561194957600080fd5b6000611957848285016117ed565b91505092915050565b6000806040838503121561197357600080fd5b6000611981858286016117ed565b925050602061199285828601611636565b9150509250929050565b600080600080608085870312156119b257600080fd5b60006119c0878288016117ed565b94505060206119d187828801611636565b93505060406119e287828801611801565b92505060606119f387828801611815565b91505092959194509250565b60008060408385031215611a1257600080fd5b6000611a20858286016117ed565b925050602083013567ffffffffffffffff811115611a3d57600080fd5b611a498582860161164a565b9150509250929050565b60008060408385031215611a6657600080fd5b6000611a74858286016117ed565b9250506020611a8585828601611815565b9150509250929050565b600060208284031215611aa157600080fd5b6000611aaf84828501611829565b91505092915050565b611ac181611d42565b82525050565b611ad081611d62565b82525050565b611adf81611d6e565b82525050565b611aee81611dd4565b82525050565b611afd81611d78565b82525050565b6000602082019050611b186000830184611ab8565b92915050565b6000604082019050611b336000830185611ab8565b611b406020830184611ab8565b9392505050565b6000606082019050611b5c6000830186611ab8565b611b696020830185611ab8565b611b766040830184611af4565b949350505050565b6000606082019050611b936000830186611ab8565b611ba06020830185611ad6565b611bad6040830184611af4565b949350505050565b6000606082019050611bca6000830186611ab8565b611bd76020830185611ae5565b611be46040830184611af4565b949350505050565b6000602082019050611c016000830184611ac7565b92915050565b6000602082019050611c1c6000830184611ad6565b92915050565b6000606082019050611c376000830186611ad6565b611c446020830185611ab8565b611c516040830184611ab8565b949350505050565b6000604082019050611c6e6000830185611ad6565b611c7b6020830184611af4565b9392505050565b6000602082019050611c976000830184611af4565b92915050565b6000604051905081810181811067ffffffffffffffff82111715611cc057600080fd5b8060405250919050565b600067ffffffffffffffff821115611ce157600080fd5b602082029050602081019050919050565b600067ffffffffffffffff821115611d0957600080fd5b602082029050602081019050919050565b600067ffffffffffffffff821115611d3157600080fd5b602082029050602081019050919050565b600073ffffffffffffffffffffffffffffffffffffffff82169050919050565b60008115159050919050565b6000819050919050565b6000819050919050565b600073ffffffffffffffffffffffffffffffffffffffff82169050919050565b60008115159050919050565b6000819050919050565b6000611dc382611d42565b9050919050565b6000819050919050565b6000611ddf82611d42565b90509190505600a265627a7a72305820c3ec58407a6f10c19d95f6d14bb1b67d4c9b915aa275a4bb0ca514e5a88193ae6c6578706572696d656e74616cf50037",
  "source": "pragma solidity  ^0.4.23;\npragma experimental ABIEncoderV2;\n\nimport './Accounts.sol';\n\ncontract Gratis is Accounts {\n  mapping(address => mapping(bytes32 => uint)) public pendingDonations;\n\n  event Donation(address donor, bytes32 nameHash, uint value);\n  event PendingDonation(address donor, bytes32 nameHash, uint value);\n  event PendingDonationCompleted(address donor, bytes32 nameHash, uint value);\n  event PendingDonationRefunded(address donor, bytes32 nameHash, uint value);\n\n  function donate(bytes32 nameHash) public payable {\n    donateValue(nameHash, msg.value);\n  }\n\n  function donateToMany(bytes32[] nameHashes, uint[] values) public payable {\n    uint i;\n    uint totalValue;\n\n    for (i=0; i<nameHashes.length; i++) {\n      totalValue += values[i];\n    }\n    require( totalValue == msg.value );\n\n    for (i=0; i<nameHashes.length; i++) {\n      donateValue(nameHashes[i], values[i]);\n    }\n  }\n\n  function withdrawPendingDonations(bytes32 nameHash, address[] donors) public {\n    require( msg.sender == accounts[nameHash].owner );\n\n    uint8 i;\n    uint totalValue;\n    for(i=0; i<donors.length; i++) {\n      totalValue += pendingDonations[donors[i]][nameHash];\n      emit PendingDonationCompleted(donors[i], nameHash, pendingDonations[donors[i]][nameHash]);\n      returnTokens(nameHash, donors[i], pendingDonations[donors[i]][nameHash] / accounts[nameHash].weiPerToken);\n      pendingDonations[donors[i]][nameHash] = 0;\n    }\n    accounts[nameHash].owner.transfer(totalValue);\n  }\n\n  function refundPendingDonation(bytes32 nameHash, uint value) public {\n    require(  value <= pendingDonations[msg.sender][nameHash] );\n\n    emit PendingDonationRefunded(msg.sender, nameHash, value);\n    pendingDonations[msg.sender][nameHash] -= value;\n    msg.sender.transfer(value);\n  }\n\n  function donateValue(bytes32 nameHash, uint value) internal {\n    if (accounts[nameHash].owner != 0x0) {\n      emit Donation(msg.sender, nameHash, value);\n      accounts[nameHash].owner.transfer(value);\n      returnTokens(nameHash, msg.sender, value / accounts[nameHash].weiPerToken);\n    } else {\n      emit PendingDonation(msg.sender, nameHash, value);\n      pendingDonations[msg.sender][nameHash] += value;\n    }\n  }\n\n  function returnTokens(bytes32 nameHash, address to, uint value) internal {\n    accounts[nameHash].token.transferFrom(accounts[nameHash].owner, to, value);\n  }\n\n}\n",
  "sourcePath": "/home/jonah/miscCode/pkipay/blockchain/contracts/Gratis.sol",
  "compiler": {
    "name": "solc",
    "version": "0.4.23+commit.124ca40d.Emscripten.clang"
  },
  "schemaVersion": "2.0.0",
  "updatedAt": "2018-05-21T21:04:06.510Z"
}